:100000000C9462000C948A000C948A000C948A0070
:100010000C948A000C948A000C948A000C948A0038
:100020000C948A000C948A000C948A000C948A0028
:100030000C948A000C948A000C948A000C948A0018
:100040000C9444030C948A000C9412030C94EC025C
:100050000C948A000C948A000C948A000C948A00F8
:100060000C948A000C948A0008000000BE92244977
:10007000123EABAAAA2ABECDCCCC4C3E00000080DA
:10008000BEABAAAAAA3E00000000BF000000803F4D
:100090000000000000084178D3BB4387D1133D190D
:1000A0000E3CC3BD4282AD2B3E68EC8276BED98F3A
:1000B000E1A93E4C80EFFFBE01C4FF7F3F0000007E
:1000C0000000BE0411241FBECFEFD8E0DEBFCDBFBD
:1000D00011E0A0E0B1E0ECEAFFE002C005900D9273
:1000E000AE31B107D9F721E0AEE1B1E001C01D9218
:1000F000A43CB207E1F710E0C2E6D0E004C02197CB
:10010000FE010E94CE07C136D107C9F70E948E03B7
:100110000C94D4070C940000AF92BF92CF92DF9260
:10012000EF92FF920F931F93CF93DF936C017B01AC
:100130008B01040F151FEB015E01AE18BF08C0173D
:10014000D10759F06991D601ED91FC910190F081B0
:10015000E02DC6010995892B79F7C501DF91CF9173
:100160001F910F91FF90EF90DF90CF90BF90AF90D5
:100170000895FC01538D448D252F30E0842F90E0AD
:10018000821B930B541710F0CF9608950197089592
:10019000FC01918D828D981761F0A28DAE0FBF2F5B
:1001A000B11D5D968C91928D9F5F9F73928F90E0B1
:1001B00008958FEF9FEF0895FC01918D828D981720
:1001C00031F0828DE80FF11D858D90E008958FEF5D
:1001D0009FEF0895FC01918D228D892F90E0805C26
:1001E0009F4F821B91098F739927089587E291E0B1
:1001F0000E94EA0021E0892B09F420E0822F089573
:1002000080E090E0892B29F00E94F60081110C9487
:1002100000000895FC01A48DA80FB92FB11DA35AA9
:10022000BF4F2C91848D90E001968F739927848F16
:10023000A689B7892C93A089B1898C918370806439
:100240008C93938D848D981306C00288F389E02DDA
:1002500080818F7D80830895EF92FF920F931F938B
:10026000CF93DF93EC0181E0888F9B8D8C8D981369
:100270001AC0E889F989808185FF15C09FB7F89475
:10028000EE89FF896083E889F989808183708064C1
:1002900080839FBF81E090E0DF91CF911F910F910C
:1002A000FF90EF900895F62E0B8D10E00F5F1F4F1B
:1002B0000F731127E02E8C8D8E110CC00FB607FC2A
:1002C000FACFE889F989808185FFF5CFCE010E94B8
:1002D0000A01F1CFEB8DEC0FFD2FF11DE35AFF4F1B
:1002E000F0829FB7F8940B8FEA89FB898081806246
:1002F000CFCF682F87E291E00C942C01CF93DF934E
:10030000EC01888D8823B9F0AA89BB89E889F9892D
:100310008C9185FD03C0808186FD0DC00FB607FC62
:10032000F7CF8C9185FFF2CF808185FFEDCFCE0195
:100330000E940A01E9CFDF91CF9108953FB7F89469
:100340008091230190912401A0912501B091260173
:1003500026B5A89B05C02F3F19F00196A11DB11D20
:100360003FBFBA2FA92F982F8827BC01CD01620F5C
:10037000711D811D911D42E0660F771F881F991F17
:100380004A95D1F70895FC0101900020E9F73197D3
:10039000AF01481B590BBC0187E291E00C948C0023
:1003A0008F929F92AF92BF920F931F93CF93DF9341
:1003B000CDB7DEB7A1970FB6F894DEBF0FBECDBFA5
:1003C00019A2423008F44AE08E010F5D1F4F842EBF
:1003D000912CB12CA12CA50194010E94AC07E62F11
:1003E000B901CA01EA30F4F4E05DD801EE938D0161
:1003F000232B242B252B79F790E080E0109719F020
:10040000CD010E94C301A1960FB6F894DEBF0FBEC6
:10041000CDBFDF91CF911F910F91BF90AF909F9073
:100420008F900895E95CE1CF4F925F926F927F9237
:100430008F929F92AF92BF92CF92DF92EF92FF92F4
:100440000F931F93CF936B017C01742EAC019B0122
:100450000E947207882399F082E191E0CF911F9169
:100460000F91FF90EF90DF90CF90BF90AF909F9053
:100470008F907F906F905F904F900C94C3014601D6
:100480005701E894B7F82FEF3FEF4FE75FE7C5015B
:10049000B4010E94720781110DC02FEF3FEF4FE7AB
:1004A0005FE7C501B4010E94580518161CF486E1E7
:1004B00091E0D4CF2FEF3FEF4FE75FE4C701B601E4
:1004C0000E94B00618161CF48AE191E0C7CF2FEF06
:1004D0003FEF4FE75FECC701B6010E94580587FD6B
:1004E000F3CF20E030E0A901C701B6010E94580512
:1004F00010E000E087FF08C08DE20E9479018C01C6
:10050000F7FAF094F7F8F094C0E060E070E080E073
:100510009FE37C1641F020E030E040E251E40E948D
:100520005D05CF5FF6CFA70196010E94EC042B0179
:100530003C010E94CF054B015C014AE00E94D001C2
:100540007C01E00EF11ECC23B1F1C501B4010E9483
:10055000FE059B01AC01C301B2010E94EB044B01FB
:100560005C018EE20E947901E80EF91EC15018F17B
:1005700020E030E040E251E4C501B4010E940507EB
:100580002B013C010E94CF054B01B12CA12C4AE06C
:10059000C501B4010E94D001E80EF91EC501B401E5
:1005A0000E94FE059B01AC01C301B2010E94EB0455
:1005B0004B015C01DBCFC701CF911F910F91FF90E1
:1005C000EF90DF90CF90BF90AF909F908F907F90F3
:1005D0006F905F904F9008951F920F920FB60F92F9
:1005E00011242F933F934F935F936F937F938F9338
:1005F0009F93AF93BF93EF93FF9387E291E00E94A5
:100600000A01FF91EF91BF91AF919F918F917F91DF
:100610006F915F914F913F912F910F900FBE0F906F
:100620001F9018951F920F920FB60F9211242F93BF
:100630008F939F93EF93FF93E0913701F0913801EF
:100640008081E0913D01F0913E0182FD1BC09081CF
:10065000809140018F5F8F7320914101821741F09B
:10066000E0914001F0E0E95DFE4F958F80934001FD
:10067000FF91EF919F918F912F910F900FBE0F904F
:100680001F9018958081F4CF1F920F920FB60F9292
:1006900011242F933F938F939F93AF93BF93809198
:1006A0001F0190912001A0912101B0912201309170
:1006B0001E0123E0230F2D3758F50196A11DB11D12
:1006C00020931E0180931F0190932001A09321018C
:1006D000B09322018091230190912401A0912501E2
:1006E000B09126010196A11DB11D80932301909325
:1006F0002401A0932501B0932601BF91AF919F9152
:100700008F913F912F910F900FBE0F901F901895D2
:1007100026E8230F0296A11DB11DD2CF789484B58F
:10072000826084BD84B5816084BD85B5826085BDED
:1007300085B5816085BD80916E00816080936E007B
:10074000109281008091810082608093810080916D
:10075000810081608093810080918000816080931E
:1007600080008091B10084608093B1008091B000DE
:1007700081608093B00080917A00846080937A00D9
:1007800080917A00826080937A0080917A00816003
:1007900080937A0080917A00806880937A0010922A
:1007A000C100E0913701F091380182E08083E0914F
:1007B0003301F09134011082E0913501F09136015E
:1007C0008FEC808310923F01E0913B01F0913C015E
:1007D00086E08083E0913901F0913A018081806167
:1007E0008083E0913901F0913A01808188608083B3
:1007F000E0913901F0913A01808180688083E09135
:100800003901F0913A0180818F7D808310E4C0E04E
:10081000D0E010937C0080917A00806480937A000D
:1008200080917A0086FDFCCF8091780060917900FC
:10083000762F682F072E000C880B990B0E9400065C
:100840009B01AC0160E070E080E894E40E945D05EB
:1008500020E030E040E85FE30E94EB0420E030E479
:100860004CE156E40E9405070E94BD066B017C0125
:1008700029E537E44CEB53E30E940507A7019601F5
:100880000E94050723E73FE745E759E30E94EC0490
:10089000A70196010E9405072BEE3FEF43E95AE3BB
:1008A0000E94EC049B01AC0160E070E080E89FE3F3
:1008B0000E945D054B015C0123E333E948E853E402
:1008C0000E94EB046B017C0142E0C501B4010E946F
:1008D000140289E00E94790142E0C701B6010E943A
:1008E000140289E00E94790120E030E040E151E407
:1008F000C701B6010E94050720E030E040EA50E45D
:100900000E945D0520E030E040E052E40E94EC04EB
:1009100042E00E9414028AE00E9479010E949E0136
:100920004B015C0180EDC82E87E0D82EE12CF12C24
:100930000E949E01681979098A099B09683E7340E3
:1009400081059105A8F321E0C21AD108E108F10858
:1009500088EE880E83E0981EA11CB11CC114D1043E
:10096000E104F10429F7209709F453CF0E94F6001F
:10097000882309F44ECF0E9400004BCFE7E2F1E05C
:100980001382128288EE93E0A0E0B0E08483958326
:10099000A683B78384E091E09183808385EC90E027
:1009A0009587848784EC90E09787868780EC90E039
:1009B000918B808B81EC90E0938B828B82EC90E02A
:1009C000958B848B86EC90E0978B868B118E128EA4
:1009D000138E148E08955058BB27AA270E94030532
:1009E0000C9476060E94680638F00E946F0620F08C
:1009F00039F49F3F19F426F40C9465060EF4E09543
:100A0000E7FB0C945F06E92F0E94870658F3BA179C
:100A1000620773078407950720F079F4A6F50C9414
:100A2000A9060EF4E0950B2EBA2FA02D0B01B901EB
:100A300090010C01CA01A0011124FF27591B99F054
:100A4000593F50F4503E68F11A16F040A22F232F60
:100A5000342F4427585FF3CF469537952795A795B0
:100A6000F0405395C9F77EF41F16BA0B620B730B57
:100A7000840BBAF09150A1F0FF0FBB1F661F771FC8
:100A8000881FC2F70EC0BA0F621F731F841F48F47D
:100A9000879577956795B795F7959E3F08F0B0CF06
:100AA0009395880F08F09927EE0F979587950895ED
:100AB0000E943B0608F481E008950E9471050C94A1
:100AC00076060E946F0658F00E94680640F029F4EE
:100AD0005F3F29F00C945F0651110C94AA060C9408
:100AE00065060E94870668F39923B1F3552391F3B5
:100AF000951B550BBB27AA2762177307840738F08D
:100B00009F5F5F4F220F331F441FAA1FA9F335D0E9
:100B10000E2E3AF0E0E832D091505040E695001C9D
:100B2000CAF72BD0FE2F29D0660F771F881FBB1F57
:100B3000261737074807AB07B0E809F0BB0B802D35
:100B4000BF01FF2793585F4F3AF09E3F510578F061
:100B50000C945F060C94AA065F3FE4F3983ED4F32E
:100B6000869577956795B795F7959F5FC9F7880F35
:100B7000911D9695879597F90895E1E0660F771F87
:100B8000881FBB1F621773078407BA0720F0621B18
:100B9000730B840BBA0BEE1F88F7E09508950E9443
:100BA0008F0688F09F5798F0B92F9927B751B0F06A
:100BB000E1F0660F771F881F991F1AF0BA95C9F7E1
:100BC00014C0B13091F00E94A906B1E008950C94D0
:100BD000A906672F782F8827B85F39F0B93FCCF383
:100BE000869577956795B395D9F73EF4909580955E
:100BF000709561957F4F8F4F9F4F0895E89409C07E
:100C000097FB3EF490958095709561957F4F8F4F3F
:100C10009F4F9923A9F0F92F96E9BB279395F69555
:100C2000879577956795B795F111F8CFFAF4BB0FD3
:100C300011F460FF1BC06F5F7F4F8F4F9F4F16C037
:100C4000882311F096E911C0772321F09EE8872FC1
:100C5000762F05C0662371F096E8862F70E060E07D
:100C60002AF09A95660F771F881FDAF7880F9695F6
:100C7000879597F90895990F0008550FAA0BE0E89A
:100C8000FEEF16161706E807F907C0F0121613064E
:100C9000E407F50798F0621B730B840B950B39F48E
:100CA0000A2661F0232B242B252B21F408950A26F4
:100CB00009F4A140A6958FEF811D811D089597F934
:100CC0009F6780E870E060E008959FEF80EC0895F2
:100CD00000240A941616170618060906089500241B
:100CE0000A9412161306140605060895092E039495
:100CF000000C11F4882352F0BB0F40F4BF2B11F409
:100D000060FF04C06F5F7F4F8F4F9F4F089557FD67
:100D10009058440F551F59F05F3F71F04795880F69
:100D200097FB991F61F09F3F79F087950895121600
:100D300013061406551FF2CF4695F1DF08C01616AC
:100D400017061806991FF1CF86957105610508945D
:100D50000895E894BB2766277727CB0197F9089574
:100D60000E943B0608F48FEF089516F00C94770765
:100D70000C94650668940C945F060E948F06A8F395
:100D80009923C1F3AEF3DF93CF931F930F93FF9299
:100D9000C92FDD2788232AF02197660F771F881F28
:100DA000DAF720E030E040E85FEB9FE3883920F09D
:100DB000803E38F021968F770E94EC04E8E6F0E060
:100DC00004C00E94EC04E5E9F0E00E9485078B0175
:100DD000BE01EC01FB2E6F5771097595771F880BCB
:100DE000990B0E94000628E132E741E35FE30E948D
:100DF0001807AF2D9801AE01FF900F911F91CF9171
:100E0000DF910E9403050C9476060E9418070C944B
:100E100076060E94680638F00E946F0620F095233F
:100E200011F00C945F060C94650611240C94AA062C
:100E30000E94870670F3959FC1F3950F50E0551FF0
:100E4000629FF001729FBB27F00DB11D639FAA271F
:100E5000F00DB11DAA1F649F6627B00DA11D661F6E
:100E6000829F2227B00DA11D621F739FB00DA11D8F
:100E7000621F839FA00D611D221F749F3327A00D49
:100E8000611D231F849F600D211D822F762F6A2FE5
:100E900011249F5750409AF0F1F088234AF0EE0F4A
:100EA000FF1FBB1F661F771F881F91505040A9F777
:100EB0009E3F510580F00C945F060C94AA065F3F9C
:100EC000E4F3983ED4F3869577956795B795F795B3
:100ED000E7959F5FC1F7FE2B880F911D969587952B
:100EE00097F908950E943B06880B990B08959F3F40
:100EF00031F0915020F4879577956795B795880FD5
:100F0000911D9695879597F90895DF93CF931F9339
:100F10000F93FF92EF92DF927B018C01689406C0E1
:100F2000DA2EEF010E941807FE01E894A5912591A1
:100F3000359145915591A6F3EF010E940305FE01FD
:100F40009701A801DA9469F7DF90EF90FF900F9175
:100F50001F91CF91DF910895A1E21A2EAA1BBB1B0E
:100F6000FD010DC0AA1FBB1FEE1FFF1FA217B30775
:100F7000E407F50720F0A21BB30BE40BF50B661F8B
:100F8000771F881F991F1A9469F76095709580954F
:100F900090959B01AC01BD01CF010895EE0FFF1F9D
:0C0FA0000590F491E02D0994F894FFCF27
:100FAC00000000002C018C00B9007E01EA00C80092
:0E0FBC00DC006E616E00696E66006F76660086
:00000001FF
